:020000040800F2
:10000000C007002061010008C51600082914000877
:1000100000000000000000000000000000000000E0
:10002000000000000000000000000000C9160008E9
:100030000000000000000000C7160008CB160008F2
:1000400073010008730100087301000873010008C0
:10005000730100089F03000873010008A90300084A
:1000600073010008730100087301000873010008A0
:100070007301000873010008730100087301000890
:100080007301000873010008730100087301000880
:100090007301000873010008730100087301000870
:1000A0007301000873010008730100087301000860
:1000B00073010008730100087301000800F002F8E2
:1000C00000F03EF80CA030C8083824182D18A246BD
:1000D000671EAB4654465D46AC4201D100F030F895
:1000E0007E460F3E0FCCB6460126334200D0FB1AA7
:1000F000A246AB4633431847081B0000281B0000EC
:10010000103A02D378C878C1FAD8520701D330C860
:1001100030C101D504680C60704700000023002442
:1001200000250026103A01D378C1FBD8520700D32E
:1001300030C100D50B6070471FB51FBD10B510BD95
:1001400000F0FAF81146FFF7F7FF01F0D9FC00F0D4
:1001500012F903B4FFF7F2FF03BC00F019F9000035
:100160000748804707480047FEE7FEE7FEE7FEE74F
:10017000FEE7FEE704480549054A064B70470000C4
:100180002D170008BD000008C0010020C007002096
:10019000C0030020C003002001E004C0091F04299F
:1001A000FBD28B0701D50280801CC90700D00270EA
:1001B000704700290BD0C30702D00270401C491EB3
:1001C000022904D3830702D50280801C891EE3E73D
:1001D0000022EEE70022DFE7002203098B422CD346
:1001E000030A8B4211D300239C464EE003460B4387
:1001F0003CD4002243088B4231D303098B421CD3E9
:10020000030A8B4201D394463FE0C3098B4201D3DA
:10021000CB01C01A524183098B4201D38B01C01A12
:10022000524143098B4201D34B01C01A5241030989
:100230008B4201D30B01C01A5241C3088B4201D338
:10024000CB00C01A524183088B4201D38B00C01AE5
:10025000524143088B4201D34B00C01A5241411A0C
:1002600000D201465241104670475DE0CA0F00D0EF
:100270004942031000D34042534000229C460309E8
:100280008B422DD3030A8B4212D3FC22890112BA6E
:10029000030A8B420CD3890192118B4208D3890146
:1002A00092118B4204D389013AD0921100E089095E
:1002B000C3098B4201D3CB01C01A524183098B423F
:1002C00001D38B01C01A524143098B4201D34B0128
:1002D000C01A524103098B4201D30B01C01A52418B
:1002E000C3088B4201D3CB00C01A524183088B4212
:1002F00001D38B00C01A5241D9D243088B4201D39B
:100300004B00C01A5241411A00D201466346524185
:100310005B10104601D34042002B00D54942704784
:1003200063465B1000D3404201B50020C046C04682
:1003300002BD704770477047754600F025F8AE461D
:10034000050069465346C008C000854618B020B570
:10035000FFF710FF60BC00274908B6460026C0C55D
:10036000C0C5C0C5C0C5C0C5C0C5C0C5C0C5403D6D
:1003700049008D46704710B50446C046C046204629
:10038000FFF7E7FE10BD0000004870476001002045
:1003900001491820ABBEFEE726000200704710B5E9
:1003A000012000F037F810BD10B5202000F032F821
:1003B000402000F02FF80120800200F02BF80120EF
:1003C000800300F027F810BD72B6FEE73C214843D9
:1003D00080B27047E1210901484310B5024909780C
:1003E000FFF7FAFE80B210BD0000002070B5044691
:1003F00000F0FEF80546601C02D00448007824187E
:1004000000F0F6F8401BA042FAD370BD2000002097
:100410007047000070B5084D0446E868204203D0DC
:10042000EC60204600F00AF82869204203D02C61D5
:100430002046FFF7EDFF70BD00180240114940282B
:1004400014D007DC012815D0202802D14889401C8F
:100450004881704701229202801A0FD00F22920227
:100460009042F6D18889401C88817047C889401C19
:10047000C8817047088A401C08827047488A401C1F
:100480004882704700000020F0B5002303249AE062
:100490002A4601259D402A407ED00E79B607B60F28
:1004A000012E01D0022E16D186682746B4465E0082
:1004B000B646B7406646BE43B446CF687646B740B8
:1004C0006646374387604668AE430D79ED06ED0F0B
:1004D0009D40354345600D79ED43AD0708D0C568B3
:1004E0005F002646BE40B5438E68BE402E43C660C0
:1004F0000D79AD07AD0F022D0ED1DD08AD002D1821
:10050000AC462D6A5E07F60E0F27B740BD430F6954
:10051000B7402F4365462F6205685F002646BE4000
:10052000B5430E79B607B60FBE402E4306604D6840
:10053000AD03AD0F46D09E08264DB6007519AC46EA
:100540002D6E9E07F60E0F27B740BD4305273F07C8
:10055000B84201D100270FE01F4FB84201D1012757
:100560000AE01E4FB84201D1022705E01C4FB842F5
:1005700001D1032700E00527B7402F43154D6646FC
:1005800037662D684E689543F60200D51543114F26
:100590003D607D68954300E014E04E68B60200D5EA
:1005A00015437D600B4D80356E684F689643BF03E1
:1005B00000D516436E602E684F689643FF0300D542
:1005C00016432E605B1C0A681546DA4000D05FE7D0
:1005D000F0BD000000180240000400500008005068
:1005E000000C0050002A01D0816170478162704781
:1005F00001488068704700002000002002488168A0
:1006000002788918816070472000002010B50848E2
:1006100000240168821511430160032000F00AF8EC
:10062000002801D0012401E000F028F8204610BD88
:100630000020024070B50F4E002431780546002995
:1006400015D07D20C000FFF7C7FD01460A480068AD
:10065000FFF7C2FD00F042FC002808D1042D06D2AD
:1006600000222946401E00F02FF8756000E00124AA
:10067000204670BD200000202C00002008B50B484B
:100680000168012211430160006810400090074892
:100690004038C26B01040A43C263C06B084000903B
:1006A0000320400200F010FC08BD00004010024092
:1006B000002805DBC106C90E0120884001490860F9
:1006C0007047000000E100E010B501F0F7F910BD3F
:1006D00010B50F4C2168032252029143014321605F
:1006E000C11FFF39FA390ED10A4806210068484374
:1006F0000949FFF771FD401C02E0002805D0401EAB
:1007000061694905F9D4002010BD032010BD000027
:10071000007000402C00002040420F00FEB504464F
:1007200000680027704D714E800355D50020009061
:10073000F06BC00007D4F16BA8050143F163F16BC6
:100740000140012000906A48016882151143016050
:10075000FFF74EFF019005E0FFF74AFF0199401AAD
:10076000022825D862480068C005F5D5E86903214C
:10077000090208400FD0216B81420CD0E8690321A7
:100780000902EA698843012109040A43EA61EA6926
:100790008A43EA61E861C0070FD0FFF729FF0190A3
:1007A00008E0FFF725FF0199411A5248814201D91B
:1007B000032709E0E8698007F3D5E8690321090206
:1007C0008843216B0843E8610098002804D0F16B4E
:1007D000012000078143F1632078C00705D06869D4
:1007E000616880088000084368612078800705D52B
:1007F00068690C218843A168084368612078C006B5
:1008000006D56869032189028843E1680843686165
:100810002088800506D56869032189048843A16979
:10082000084368612088400506D5686903210905E9
:100830008843E169084368612078800606D56869C5
:100840000321090388432169084368612088400423
:100850000ED56869216A800080080843686101211B
:10086000206A8907884203D1F06889130843F06041
:100870002068000305D5686940218843616A084300
:100880006861206881021C480BD569698210A36ADF
:10089000914319436961A16A914202D1F168014310
:1008A000F160216849020AD56969E26A814311430E
:1008B0006961E16A814202D1F1680143F1602088F7
:1008C00000050FD5686903218903884361690843DE
:1008D0006861012160698903884203D1F068890059
:1008E0000843F0603846FEBD401002400010024050
:1008F000007000408813000000000001F8B50F46AA
:10090000060043D04D4D28684007400FB84213D22F
:100910002868C008C00038432860FFF769FE044615
:1009200005E0FFF765FE011B4548814261D8286854
:100930004007400FB842F4D13068424C81070DD5D2
:10094000400704D5A068072109030843A060A068F8
:100950000F2109028843B1680843A0603078C007BE
:1009600032D0706801280AD002280BD000280FD09E
:100970003449403103280ED0C969890704E0216851
:10098000890301E021688901002906DB0120F8BD07
:1009900021684905F8E7096AEFE7A168C908C900B5
:1009A0000143A160FFF724FE009006E0FFF720FE60
:1009B0000099411A224881421BD8A068382108407A
:1009C0007168C9008842F1D128684007400FB842D9
:1009D00017D91A480168C908C90039430160FFF7EF
:1009E00007FE054607E0FFF703FE411B144881425E
:1009F00001D90320F8BD114800684007400FB842F4
:100A0000F1D13078400706D5A06807210903884353
:100A1000F1680843A06000F01DF8A1683C22890934
:100A20001140094A515CC906C90EC840074908600F
:100A300007480068FFF7FEFDF8BD000000200240F7
:100A40008813000000100240C01B00082C0000208A
:100A50002400002010B5204CA068204A8006400FDA
:100A600016D0A0688006410F501001290FD0A16850
:100A70008906490F022912D0A0688006400F042879
:100A800023D0A0688006400F032821D0002010BD8D
:100A9000206801218004400F8140104612E0E16887
:100AA0008B07E1689B0F4906490F491C032B00D0B7
:100AB0001046FFF791FBE1684904490E4843E1689D
:100AC000490F491CFFF788FB10BD0120C00310BD72
:100AD0007D20000210BD0000001002400024F40040
:100AE000F8B504007ED020783827C007ED4D0028E7
:100AF00046D0A868E96838408907890F102802D0D5
:100B000008280BD001E0032908D001206268000406
:100B100082420AD129680143296015E028688003D0
:100B20002ED560680028DDD02AE0052301211B04B2
:100B300089049A422A6802D10A432A60EAE782437A
:100B40002A60286888432860606800280CD0FFF776
:100B50004FFD064604E0FFF74BFD801B642873D869
:100B600028688003F7D50BE0FFF742FD064604E056
:100B7000FFF73EFD801B6428F1D828688003F7D476
:100B80002078800769D5A868E96838408A07072176
:100B9000920FC902102802D0002813D001E0022AC7
:100BA00010D0E068002846D02868884321690843AF
:100BB00028602868FF21013108432860FFF718FDED
:100BC00006462CE02A68520502D5E268002A89D040
:100BD0006A687F231B029A4363691B021A436A6097
:100BE000002800E08DE00ED1286888432169084381
:100BF0002860286801218004400F8140AA48FFF73F
:100C0000EBFAAA490860AA480068FFF713FD00281C
:100C100077D122E0FFF7ECFC801B02289FD82868E0
:100C20004005F7D568687F21090288436169090298
:100C30000843686011E02968FF2001308143296082
:100C4000FFF7D6FC064605E098E0FFF7D1FC801BD5
:100C5000022884D828684005F7D42078954E0007EC
:100C60002ED5A8688006400F03280AD0A069002866
:100C7000306A16D0012108433062FFF7B9FC0746FD
:100C80000BE0306A80071BD5A06900289FD017E0D1
:100C9000FFF7AEFCC01B022870D8306A8007F7D57A
:100CA0000EE0400840003062FFF7A2FC074604E077
:100CB000FFF79EFCC01B022860D8306A8007F7D47B
:100CC000207840076CD5A86800278006400F0428CC
:100CD00018D0E86BC00008D4E96B0120000701437D
:100CE000E963E96B01400127009173480168C90578
:100CF00019D40168821511430160FFF779FC009057
:100D00000DE083E0F06980074AD5A06800287DD017
:100D100046E0FFF76DFC0099401A02282ED866487D
:100D20000068C005F5D5A168012910D00420052967
:100D3000F16911D049084900F161F1698143F1611C
:100D4000A068002816D0FFF753FC00900EE0F06971
:100D500001210843F061F3E70143F161F7E7FFF791
:100D600047FC0099411A5548814267D8F0698007CD
:100D7000F5D50EE0FFF73CFC009007E05EE0FFF7E2
:100D800037FC0099411A4D48814257D8F0698007D5
:100D9000F5D4002F04D0E86B012109078843E863EC
:100DA000E06900287BD0A9688906490F02294FD045
:100DB000012636060228286805D0B0432860FFF7D0
:100DC00017FC04463CE0B0432860FFF711FC0746DF
:100DD00004E0FFF70DFCC01B02282FD82868800113
:100DE000F7D4616A206AA26A0843E16A12021143D9
:100DF0000843216B0843616B0843E968304A11409E
:100E00000843E86028683043286000E045E0E8686F
:100E1000012109070843E860FFF7EAFB044604E004
:100E2000FFF7E6FB001B022808D828688001F7D5E9
:100E300035E0FFF7DDFB001B022801D90320F8BDD8
:100E400028688001F5D4E8681E490840E86026E07B
:100E50000128F4D0E868226A8107890F91421CD1E9
:100E60007021626A0140914217D17F21A26A090272
:100E700001401202914210D11F214904E26A01404F
:100E800091420AD107214906226B0140914204D1C7
:100E9000400F616B4007884201D00120F8BD00205F
:100EA000F8BD0000001002400024F4002C000020D7
:100EB0002400002040100240007000408813000011
:100EC0008C80C111FCFFFEEE03490A6803235B021C
:100ED0009A4302430A60704700000140094910B577
:100EE000401E884201D9012010BD074C60610321DA
:100EF000081F00F0E3FD0020A06107202061002012
:100F000010BD0000FFFFFF0000E000E070B50346E9
:100F100020331A7F012A4BD001221A770325CA6891
:100F20002D02AA438D6800682A430125AD02AA4319
:100F30004D6800242A430125ED02AA430D682A4387
:100F400001252D03AA430D692A4301256D03AA43F8
:100F50004D692A430125AD03AA430D6B2A430F2592
:100F60002D04AA430D8B2D042A43124DA84204D10F
:100F700001263607B243CE693243A84214D10F2569
:100F80002D05AA430D8D2D052A4301252D06AA43C3
:100F90000D6A2A4301256D06AA434D6AC96A2A4390
:100FA00001256D07AA430A4342641C77002070BDE7
:100FB000022070BD002C0140F0B5034620331A7F9B
:100FC000012A2BD001221A7702225A77046862681C
:100FD000A568134FBC4205D116460F221205964351
:100FE0004A6832437026B2430E6816436660006852
:100FF000B84209D001229207904205D0094A904296
:1010000002D0094A904204D180228968954329433D
:1010100081600120587700201877F0BD0220F0BDD4
:10102000002C0140000400400040014070B5040065
:1010300005D025462035687F002802D006E0012033
:1010400070BD00202877204600F016F8022068774F
:10105000211D206800F06CFB012240342272AA7727
:10106000EA7722706270A270E27022716271A271DE
:10107000E2716A77002070BD08B5006805498842B2
:1010800007D105480268C9130A4302600068084096
:10109000009008BD002000404010024070B586B0AE
:1010A000044614216846FFF795F824680125AD072A
:1010B0000022264902232648AC420CD14C6B1C432B
:1010C0004C63496B02921940059199020193049374
:1010D000039200910EE01F4E0125B4420FD14C6BDC
:1010E0001C434C63496B0093194002920495019391
:1010F000039205916946FFF7C7F906B070BD164E19
:10110000B44211D1486B28434863486B0292C00730
:10111000C00F0590802000900420049005200193CA
:10112000039269460007E6E70C4DAC42E5D14C6BF3
:101130001C434C63496B0292194005910121C9037C
:1011400000910521019303920491D3E7001002401E
:101150000004005000040040002000400040014016
:10116000F8B504460020264620360090307F0D4614
:1011700001280CD00120082730770C2A48D008DC41
:10118000002A10D0042A1ED0082A06D130E00220FE
:10119000F8BD102A52D0142A60D0012000900020FF
:1011A00030770098F8BD206800F01AFB206881694C
:1011B00039438161206881690422914381612068FB
:1011C00081692A6911E0206800F050FB206881697C
:1011D0000122D2021143816120688169521091433A
:1011E0008161206881692A69120211438161D6E711
:1011F000206800F07DFB2068C1693943C161206827
:10120000C16904229143C1612068C1692A6912E061
:10121000206800F0B1FB2068C1690122D2021143AD
:10122000C1612068C269012189028A43C2612068C4
:10123000C1692A6912021143C161B0E7206800F058
:10124000D5FB2068416D394341652068426D04211A
:101250008A4342652068416D2A6912E0206800F0E7
:10126000F7FB2068416D0122D202114341652068DD
:10127000426D012189028A4342652068416D2A69D5
:101280001202114341658AE770B5040005D0254676
:101290002035687F002802D006E0012070BD0020C4
:1012A0002877204600F016F802206877211D206874
:1012B00000F03EFA012240342272AA77EA772270C7
:1012C0006270A270E27022716271A271E2716A773B
:1012D000002070BD10B58EB0044634216846FEF77C
:1012E00079FF0122216892071748914206D1C16B0C
:1012F00001221143C163C06B104008E0134A9142C0
:1013000008D1C26B02210A43C263C06B19E00D9081
:101310000EB010BD0E488142FAD101208005009028
:1013200000200B906846FFF7F9F9002801D0FFF77D
:101330004BF8054840300268012109040A43026065
:1013400000680840E3E7000000100240000400408D
:101350000040014030B504460222203000290ED062
:10136000042911D020464030082912D00C2915D06C
:10137000102918D0C378012B1AD0012030BD837FEB
:10138000012BFAD1827714E0C37F012BF5D1C2770C
:101390000FE00378012BF0D102700AE04378012BB3
:1013A000EBD1427005E08378012BE6D1827000E03A
:1013B000C2700122206800F005FA154B206815491B
:1013C000984207D0884205D0134A904202D0134A6F
:1013D000904204D1426C0125ED032A434264206807
:1013E0000122984207D09307984204D00C4B9842B0
:1013F00001D0884207D181680A4B1940062905D0DF
:10140000DB1F994202D0016811430160002030BD0A
:10141000002C0140004001400044014000480140D0
:101420000004004007000100FEE7000070B586B030
:1014300014216846FEF7CEFE2148416B012421436A
:101440004163416B21400591426B02210A43426393
:10145000406B0526084036070590002210213046D3
:10146000FFF7C0F800211020029103910090019431
:1014700069463046FFF708F8602011252D040090DA
:101480006946019502943046FEF7FEFF0D48009034
:101490006946019502940C48FEF7F6FF00221146BA
:1014A0000520FFF711F90520FFF702F90022114688
:1014B0000720FFF709F90720FFF7FAF806B070BD1B
:1014C00000100240014400000004005010B588B034
:1014D0001C216846FEF77EFE14491548002412C000
:1014E000046084606321046141600838FFF79EFD59
:1014F000002801D072B6FEE70D48FFF7C5FE0028B0
:1015000001D072B6FEE760200090019402940022A0
:10151000694604940648FFF723FE002801D072B6FE
:10152000FEE70348FFF7BAFD08B010BD00200040F9
:10153000C800002010B598B00024149415941C2104
:101540000DA81694FEF746FE34216846FEF742FECB
:101550002049214812C004608460C4606321046192
:1015600041600838FFF790FE002801D072B6FEE710
:10157000149414A918481694FFF71EFD002801D0F2
:1015800072B6FEE7602012940E940D900F941094A2
:10159000119404220DA913940F48FFF7E1FD0028D0
:1015A00001D072B6FEE7012000944003019402943A
:1015B000059003940494069469460C940648FFF73A
:1015C000A5FC002801D072B6FEE70348FFF766FDD0
:1015D00018B010BD004001401401002010B58AB0C1
:1015E0000024079408941C2168460994FEF7F2FD34
:1015F00001211648890712C00460846063210461D8
:1016000041600838FFF740FE002801D072B6FEE7BF
:10161000079407A90D480994FFF7CEFC002801D0D4
:1016200072B6FEE760200090019402940C22694695
:1016300004940648FFF794FD002801D072B6FEE737
:101640000248FFF72BFD0AB010BD0000300000205B
:1016500010B58AB00024079408941C2168460994A8
:10166000FEF7B8FD1549164812C004608460632176
:10167000046141600838FFF707FE002801D072B608
:10168000FEE7079407A90E480994FFF795FC002888
:1016900001D072B6FEE760200090019402940C2203
:1016A000694604940648FFF75BFD002801D072B636
:1016B000FEE70348FFF7F2FC0AB010BD000400404B
:1016C0007C000020FEE77047704710B5FEF796FFDC
:1016D00010BD10B592B038216846FEF77BFD00249E
:1016E00001200E940F94109440021194FEF7F0FF25
:1016F00002200090C00103904020059004940794BC
:101700006846FFF7EDF9002801D072B6FEE7072022
:101710000E900F941094002111940EA8FFF7EEF88C
:10172000002801D072B6FEE712B010BD704700006D
:10173000F0B502681D4B0124A4071D4D984203D04B
:10174000A04201D0A84203D17026B2434E68324372
:10175000184E194F98420DD0A0420BD0A84209D084
:10176000164CA04206D0B04204D0B84202D0144C6D
:10177000A04204D103242402A243CC682243802443
:10178000A2434C69224302608A68C2620A6882628C
:10179000984206D0B04204D0B84202D0084A9042E3
:1017A00001D10969016301214161F0BD002C0140B3
:1017B000000400400040014000440140002000407F
:1017C0000048014010B5CB06DB0E0121046A9940A8
:1017D0008C430462016A9A401143016210BD00000B
:1017E000F0B5026A520852000262056A43688269D3
:1017F000194C1B4E224092080C689200144302229E
:1018000095438A682A43154DA84207D0B04205D0B7
:10181000144FB84202D0144FB84206D10827BA4339
:10182000CF681743042297433A46A84207D0B042F4
:1018300005D00C4DA84202D00B4DA84206D103257D
:101840002D02AB434D691D438B692B43436084617B
:10185000496841630262F0BD8FFFFEFF002C01402A
:1018600000400140004401400048014070B5026A58
:1018700010239A430262046A43688269174D2A4022
:1018800003252D02AA430D682D02154320229443FF
:101890008A6812012243124CA04207D18024A2433D
:1018A000CC68402624012243B24308E00D4CA042FC
:1018B00005D00D4CA04202D00C4CA04208D103240C
:1018C000A402A3434C69A4001C438B699B002343DF
:1018D0004360856149688163026270BDFF8FFFFECE
:1018E000002C0140004001400044014000480140FC
:1018F00070B5026AFF2301339A430262046A4368A7
:10190000C269184D2A4092080D68920015430122C1
:10191000520294438A6812022243134CA04208D117
:101920001446CA68C614B443120222430415A243E3
:1019300008E00E4CA04205D00D4CA04202D00D4C48
:10194000A04208D103242403A3434C6924011C436F
:101950008B691B0123434360C5614968C16302620F
:1019600070BD00008FFFFEFF002C014000400140D1
:10197000004401400048014030B5026A01231B03C6
:101980009A430262046A4368C269134D2A400325E0
:101990002D02AA430D682D021543012252039443E0
:1019A0008A68120322430D4CA04208D00C4CA0427E
:1019B00005D00C4CA04202D00B4CA04205D1012412
:1019C000A403A3434C69A40123434360C561496850
:1019D0000164026230BD0000FF8FFFFE002C014059
:1019E00000400140004401400048014070B5026AD7
:1019F00001263604B2430262046A4268436D0F4D09
:101A00002B400D681D4373009C430B891B0423432B
:101A10000B4CA04208D00B4CA04205D00A4CA0426F
:101A200002D00A4CA04203D14C69B24324022243A3
:101A30004260456549688165036270BD8FFFFEFFA6
:101A4000002C01400040014000440140004801409A
:101A500030B5026A01231B059A430262046A426898
:101A6000436D114D2B400D682D021D4301235B0575
:101A70009C430B891B0523430C4CA04208D00C4C03
:101A8000A04205D00B4CA04202D00B4CA04205D185
:101A90000124A404A2434C69A40222434260456588
:101AA0004968C165036230BDFF8FFFFE002C014015
:101AB0000040014000440140004801408307FF22EC
:101AC000DB0E9A408907090E9940002808DB83083D
:101AD00009489B001B18186890430843186070471A
:101AE0000007000F0838830804489B001B18D869BA
:101AF00090430843D861704700E400E000ED00E047
:101B0000FEF784FDFFF7E5FDFFF790FCFFF712FD00
:101B1000FFF764FDFFF79CFDFFF7D8FC0421224886
:101B2000FFF718FC204800214C38FFF713FC1E4833
:101B30000C219838FFF70EFC1B480C21E438FFF706
:101B400009FC0520002210210007FEF74BFD174C71
:101B50001749608888631749A08848631649E08858
:101B6000086016492089086000257D26F600304669
:101B7000FEF73CFC6089FEF72DFCA082A089FEF7F1
:101B800025FCE082E089FEF721FC2083208AFEF715
:101B90001DFC6083608AFEF719FCA0836581A58126
:101BA000E58125826582E2E7140100200000002023
:101BB0000040014000200040400400404000004040
:101BC0000000000000000000000000000000000015
:101BD0000000000000000000000000000000000005
:101BE00001000000020000000300000004000000EB
:101BF00006000000070000000800000009000000C7
:101C0000201C000800000020300000000001000837
:101C1000501C000830000020900700001C01000844
:101C2000620063003B003B003B000000000000003E
:101C300000000000000000000000000000000000A4
:101C40000100000004000000000000000024F40077
:04000005080000BD32
:00000001FF
